:100000000C9434000C9446000C9446000C9446006A
:100010000C9446000C9446000C9446000C94460048
:100020000C9446000C9446000C9446000C94460038
:100030000C9446000C9446000C9446000C94460028
:100040000C9446000C9446000C9446000C94460018
:100050000C9446000C9446000C9446000C94460008
:100060000C9446000C94460011241FBECFEFD8E03C
:10007000DEBFCDBF21E0A0E0B1E001C01D92A03104
:10008000B207E1F70E9465000C94FB000C9400009D
:10009000EBB1E37CEBB9EBB1F5E0880F991FFA9572
:1000A000E1F78E2BA4E0660F771FAA95E1F7682B86
:1000B000B3E0440F551FBA95E1F7462B220F331FCB
:1000C000220F331F242B2BB908958AB18C638AB970
:1000D00014B883B18170282F30E030930B01209346
:1000E0000A0143B121E030E0942F927041FD02C03B
:1000F00020E030E030930F0120930E0143B121E066
:1001000030E0E42FE47042FD02C020E030E03093A4
:1001100005012093040143B121E030E0F42FF87091
:1001200043FD02C020E030E030930D0120930C012C
:1001300081110CC0FF2341F0911108C021E030E093
:10014000EE2331F020E004C021E001C020E030E0E7
:100150002093020130930301882319F0992319F0A9
:1001600008C0992331F041E050E0FF2321F040E046
:1001700002C040E050E040930601509307018823FD
:1001800029F0992329F0EE2329F00AC0911122C009
:10019000EE2331F061E070E0FF2321F060E002C067
:1001A00060E070E06093080170930901882349F0D2
:1001B0009923C1F0EE23B1F081E090E0FF23A1F09C
:1001C00007C091110FC0E1110DC081E0F1110CC009
:1001D00080E00AC0E111DECF1092090110920801FF
:1001E00060E070E080E090E0809300019093010176
:0A01F0000E9448006ECFF894FFCF84
:00000001FF
