:100000000C9434000C943E000C943E000C943E0082
:100010000C943E000C943E000C943E000C943E0068
:100020000C943E000C943E000C943E000C943E0058
:100030000C943E000C943E000C943E000C943E0048
:100040000C943E000C943E000C943E000C943E0038
:100050000C943E000C943E000C943E000C943E0028
:100060000C943E000C943E0011241FBECFEFD8E04C
:10007000DEBFCDBF0E94D6000C941F010C9400007F
:1000800095B1937C95B984FD2A9A85FD2B9A86FDBE
:100090002C9A87FD2D9A299A8AE08A95F1F700C05B
:1000A000299887EC90E00197F1F700C000000895CF
:1000B000CF93C82F2898807F0E9440008C2F829574
:1000C000807F0E9440008FE39FE10197F1F700C01D
:1000D0000000CF910895CF93C82F289A807F0E9467
:1000E00040008C2F8295807F0E9440008FE39FE12B
:1000F0000197F1F700C00000CF91089585B1807C91
:1001000085B92FEF80E792E0215080409040E1F7E1
:1001100000C0000083E30E94580082E30E94580060
:1001200088E20E9458008CE00E94580086E00E94FD
:10013000580081E00E9458008FED9EE20197F1F790
:1001400000C00000089581E00E9458008FED9EE2FB
:100150000197F1F700C000000895CF93DF93EC0101
:100160008991882319F00E946B00FACFDF91CF911B
:100170000895CF93DF93CDB7DEB728970FB6F894E5
:10018000DEBF0FBECDBF4AE0BE016F5F7F4F0E9452
:10019000EA00CE0101960E94AD0028960FB6F894B1
:1001A000DEBF0FBECDBFDF91CF91089584B18F63C5
:1001B00084B90E947E000E94A30088E30E946B0025
:1001C0002FEF83ED90E3215080409040E1F700C095
:1001D0000000F6CFBB274A3031F4992322F4BDE268
:1001E000909581959F4F0C94F600BB27FB015527F6
:1001F000AA27880F991FAA1FA41710F0A41B839584
:100200005051B9F7A05DAA3308F0A95DA1930097FA
:1002100079F7B111B1931192CB010C940F01DC016C
:10022000FC01672F71917723E1F7329704C07C912D
:100230006D9370836291AE17BF07C8F30895F89469
:02024000FFCFEE
:00000001FF
