:100000000C9434000C943E000C943E000C943E0082
:100010000C943E000C943E000C943E000C943E0068
:100020000C943E000C943E000C943E000C943E0058
:100030000C943E000C943E000C943E000C943E0048
:100040000C943E000C943E000C943E000C943E0038
:100050000C943E000C943E000C943E000C943E0028
:100060000C943E000C943E0011241FBECFEFD8E04C
:10007000DEBFCDBF0E9440000C94B9000C9400007C
:1000800084B18F6084B9259A8AB1837C8AB999B189
:1000900089B1887049B1407159B15072692F64704B
:1000A00092FF08C0811116C091E0511190E0292FF4
:1000B000382F09C071E090E0811101C070E0272F56
:1000C000392F811117C0411110C0611129C080E082
:1000D00090E017C020E030E071E050E0411170E0A6
:1000E000872F952F442381F018C081E090E06111A3
:1000F00019C007C071E060E0411101C070E0872FB6
:10010000962F511106C002C061110CC040E050E0B2
:1001100002C041E050E0289A08C041E050E004C02D
:1001200080E090E040E050E02898232B11F0299ADD
:1001300001C02998892B11F02A9A01C02A98452BD1
:1001400011F02B9A01C02B982D9A2FEF89E698E198
:10015000215080409040E1F700C000002D982FEF23
:1001600089E698E1215080409040E1F700C000000E
:060170008ECFF894FFCFD2
:00000001FF
