:100000000C942A000C943F000C943F000C943F0089
:100010000C943F000C943F000C943F000C943F0064
:100020000C943F000C943F000C943F000C943F0054
:100030000C943F000C943F000C943F000C943F0044
:100040000C943F000C943F000C943F000C943F0034
:100050000C943F0011241FBECFE5D4E0DEBFCDBF1E
:1000600010E0A0E6B0E0E0E0F3E002C005900D9201
:10007000A437B107D9F70E948B000C947E010C9431
:10008000000098B3977898BB80FDC39A81FDC49A0D
:1000900082FDC59A83FDC69AC29A8AE08A95F1F7D5
:1000A00000C0C29887EC90E00197F1F700C0000013
:1000B0000895CF93C82FC19882958F700E944100F8
:1000C0008C2F8F700E9441008FE39FE10197F1F721
:1000D00000C00000CF910895CF93C82FC19A829598
:1000E0008F700E9441008C2F8F700E9441008FE31F
:1000F0009FE10197F1F700C00000CF910895CF93E1
:10010000DF93EC018991882319F00E946C00FACFEB
:10011000DF91CF910895CF93DF93CDB7DEB761978D
:100120000FB6F894DEBF0FBECDBF81B3837E81BB17
:1001300081B3806681BB82B38F7982BB84B38F60C9
:1001400084BBB89AB99ABA9A87B3886787BB2FEFEE
:1001500083EF91E0215080409040E1F700C0000023
:10016000C19883E00E9441008FE19EE40197F1F77E
:1001700000C0000083E00E94410087E592E0019703
:10018000F1F700C0000083E00E94410082E00E947D
:10019000410088E20E9459008CE00E94590081E0F1
:1001A0000E9459008FE39FE10197F1F700C0000022
:1001B00086E00E94590080E80E94590080E690E0A5
:1001C0000E947F009FEF2FE087E291502040804007
:1001D000E1F700C0000042E5A42E5DE3C52E60E219
:1001E000B62E71E5972EE0E58E2EF6E77F2E80B3D2
:1001F0008470F82E80B38870E82E80B38071D82E7A
:10020000959A9AE19A95F1F700C095982AE12A9576
:10021000F1F700C0969A8AE18A95F1F700C09698A6
:100220009AE19A95F1F700C081E090E0D11002C008
:1002300080E090E08C01000F111F000F111F81E082
:1002400090E0E11002C080E090E0880F991F802BC1
:1002500001E0F11001C000E0082B85B3807F802B06
:1002600085BBF11009C0E11007C011E0D11010E00A
:10027000112319F0C09A02C010E0C09880EC0E94CF
:100280005900A982CA82D11002C080E301C081E373
:100290008B83BC829D82CE82E11002C080E301C0CC
:1002A00081E38F83B8868986CA86F11002C080E315
:1002B00001C081E38B87BC867D86CE86005D0F877B
:1002C000B88A198ACE0101960E947F008CEC0E94A8
:1002D000590081E790E00E947F00111102C080E385
:1002E00001C081E30E946C002FEF8FE097E2215064
:1002F00080409040E1F700C0000079CFF894FFCF34
:10030000496E707574733A5251502056616C3A665A
:0403100000663D0046
:00000001FF
