:100000000C9434000C9446000C9446000C9446006A
:100010000C9446000C9446000C9446000C94460048
:100020000C9446000C9446000C9446000C94460038
:100030000C9446000C9446000C9446000C94460028
:100040000C9446000C9446000C9446000C94460018
:100050000C9446000C9446000C9446000C94460008
:100060000C9446000C94460011241FBECFEFD8E03C
:10007000DEBFCDBF21E0A0E0B1E001C01D92A03104
:10008000B207E1F70E9465000C94DF000C940000B9
:10009000EBB1E37CEBB9EBB1F5E0880F991FFA9572
:1000A000E1F78E2BA4E0660F771FAA95E1F7682B86
:1000B000B3E0440F551FBA95E1F7462B220F331FCB
:1000C000220F331F242B2BB908958AB18C638AB970
:1000D00014B8C1E0D0E011E0E3B1E1708E2F90E000
:1000E00090930B0180930A0183B141E050E0A82F67
:1000F000A27081FF40E040930E0150930F0123B1A5
:1001000081E090E0F22FF47022FD02C080E090E0E8
:10011000909305018093040123B181E090E0622F68
:10012000687023FF80E080930C0190930D012E2FC7
:10013000212730E03093030120930201EE2351F098
:10014000A11106C041E050E0662321F040E002C06A
:1001500040E050E04093060150930701AA2319F0B4
:10016000EE2321F104C0FF2341F061E007C061E00C
:1001700070E0FF2321F060E002C060E070E0609377
:10018000080170930901EE2351F0AA2331F081E0B8
:1001900090E0F11104C080E002C080E090E0809324
:1001A0000001909301010E94480096CFFF2329F39C
:1001B000D0930901C093080161E070E0F0CFF8949A
:0201C000FFCF6F
:00000001FF
