:100000000C942A000C943C000C943C000C943C0092
:100010000C943C000C943C000C943C000C943C0070
:100020000C943C000C943C000C943C000C943C0060
:100030000C943C000C943C000C943C000C943C0050
:100040000C943C000C943C000C943C000C943C0040
:100050000C943C0011241FBECFE5D4E0DEBFCDBF21
:1000600020E0A0E6B0E001C01D92A236B207E1F7A1
:100070000E943E000C944F000C940000B89A80B38C
:10008000869586958770282F30E030936100209305
:100090006000823010F4C09AF2CFC098F0CFF8948C
:0200A000FFCF90
:00000001FF
