:100000000C942A000C9434000C9434000C943400AA
:100010000C9434000C9434000C9434000C94340090
:100020000C9434000C9434000C9434000C94340080
:100030000C9434000C9434000C9434000C94340070
:100040000C9434000C9434000C9434000C94340060
:100050000C94340011241FBECFE5D4E0DEBFCDBF29
:100060000E9436000C9472000C9400008FE084BB58
:10007000B89A80B340B3487050B395B382FB8827D9
:1000800080F9292F207F822B21E030E0652F6071DD
:1000900054FD02C020E030E0220F331F220F331F37
:1000A000282B81E090E0411102C080E090E0880FB1
:1000B000991F822B85BB41110AC081E090E0662325
:1000C00011F080E090E0892B11F0C09A01C0C09837
:1000D0002FEF81EE94E0215080409040E1F700C086
:0800E0000000C7CFF894FFCF28
:00000001FF
