:100000000C942A000C9434000C9434000C943400AA
:100010000C9434000C9434000C9434000C94340090
:100020000C9434000C9434000C9434000C94340080
:100030000C9434000C9434000C9434000C94340070
:100040000C9434000C9434000C9434000C94340060
:100050000C94340011241FBECFE5D4E0DEBFCDBF29
:100060000E9436000C9448000C94000081B3837FFA
:1000700081BBB89A91E020B380B322FD07C083FB17
:10008000882780F9891711F0C09AF5CFC098F3CF6F
:04009000F894FFCF12
:00000001FF
