:100000000C942A000C9434000C9434000C943400AA
:100010000C9434000C9434000C9434000C94340090
:100020000C9434000C9434000C9434000C94340080
:100030000C9434000C9434000C9434000C94340070
:100040000C9434000C9434000C9434000C94340060
:100050000C94340011241FBECFE5D4E0DEBFCDBF29
:100060000E9436000C9454000C9400008D9AB89AAB
:1000700091E020B380B323FD06C08295817089177B
:1000800011F0C09A01C0C098959A2AE12A95F1F71B
:1000900000C095983FEF83EC29E03150804020402C
:0C00A000E1F700C00000E5CFF894FFCFAE
:00000001FF
